:100000000C942A000C9447000C9447000C94470071
:100010000C9447000C9447000C9447000C94470044
:100020000C9447000C9447000C9447000C94470034
:100030000C9447000C9447000C9447000C94470024
:100040000C9447000C9447000C9447000C94470014
:100050000C94470011241FBECFE5D8E0DEBFCDBF12
:1000600011E0A0E6B0E0E0E1F0E102C005900D9201
:10007000A630B107D9F711E0A6E0B1E001C01D92AA
:10008000AA30B107E1F70E94FC030C9406080C9417
:10009000000040E00E94500008950E94BF010895B2
:1000A000843409F471C0853448F4823499F183347E
:1000B00008F04DC0813409F083C00FC0823651F181
:1000C000833620F4813609F07BC007C0833609F4FB
:1000D0003EC0843609F074C057C0413069F42AB379
:1000E00081E090E0AC0102C0440F551F6A95E2F731
:1000F000BA01622B6ABB08952AB381E090E0AC019B
:1001000002C0440F551F6A95E2F7BA016095622359
:100110006ABB0895413069F427B381E090E0AC01F7
:1001200002C0440F551F6A95E2F7BA01622B67BB04
:10013000089527B381E090E0AC0102C0440F551F41
:100140006A95E2F7BA016095622367BB0895413072
:1001500069F424B381E090E0AC0102C0440F551F64
:100160006A95E2F7BA01622B64BB089524B381E07B
:1001700090E0AC0102C0440F551F6A95E2F7BA0146
:100180006095622364BB0895413069F421B381E036
:1001900090E0AC0102C0440F551F6A95E2F7BA0126
:1001A000622B61BB089521B381E090E0AC0102C0F5
:1001B000440F551F6A95E2F7BA016095622361BB4F
:1001C0000895843409F471C0853448F4823499F177
:1001D000833408F04DC0813409F083C00FC08236EB
:1001E00051F1833620F4813609F07BC007C0833695
:1001F00009F43EC0843609F074C057C0413069F438
:100200002BB381E090E0AC0102C0440F551F6A950A
:10021000E2F7BA01622B6BBB08952BB381E090E04B
:10022000AC0102C0440F551F6A95E2F7BA01609510
:1002300062236BBB0895413069F428B381E090E0FC
:10024000AC0102C0440F551F6A95E2F7BA01622B58
:1002500068BB089528B381E090E0AC0102C0440F70
:10026000551F6A95E2F7BA016095622368BB08954D
:10027000413069F425B381E090E0AC0102C0440F45
:10028000551F6A95E2F7BA01622B65BB089525B345
:1002900081E090E0AC0102C0440F551F6A95E2F77F
:1002A000BA016095622365BB0895413069F422B3B9
:1002B00081E090E0AC0102C0440F551F6A95E2F75F
:1002C000BA01622B62BB089522B381E090E0AC01D9
:1002D00002C0440F551F6A95E2F7BA016095622388
:1002E00062BB0895843409F43DC0853440F48234FF
:1002F000F9F0833450F5813409F040C00CC08236E7
:10030000B9F0833618F48136C9F505C08336E9F0B3
:100310008436A1F527C02BB381E090E0AC0102C088
:10032000440F551F6A95E2F7BA0162276BBB089527
:1003300028B381E090E0AC0102C0440F551F6A95DC
:10034000E2F7BA01622768BB089525B381E090E027
:10035000AC0102C0440F551F6A95E2F7BA0162274B
:1003600065BB089522B381E090E0AC0102C0440F68
:10037000551F6A95E2F7BA01622762BB089584347B
:1003800009F44EC0853440F4823431F18334B0F541
:10039000813409F057C00EC08236F1F0833620F464
:1003A000813609F04FC006C0833641F1843609F02A
:1003B00049C036C029B381E090E0062E02C0880F04
:1003C000991F0A94E2F730E08223932302C09595A7
:1003D00087956A95E2F7089526B381E090E0062EAE
:1003E00002C0880F991F0A94E2F730E0822393231A
:1003F00002C0959587956A95E2F7089523B381E049
:1004000090E0062E02C0880F991F0A94E2F730E0B0
:100410008223932302C0959587956A95E2F7089504
:1004200020B381E090E0062E02C0880F991F0A9445
:10043000E2F730E08223932302C0959587956A9571
:10044000E2F7089508958434D9F0853438F482347D
:1004500099F0833498F48134A1F40CC0823661F0B1
:10046000833618F4813669F405C0833639F0843652
:1004700041F406C06ABB089567BB089564BB089544
:1004800061BB08958434D9F0853438F4823499F00E
:10049000833498F48134A1F40CC0823661F0833641
:1004A00018F4813669F405C0833639F0843641F496
:1004B00006C06BBB089568BB089565BB089562BB19
:1004C00008958434D9F0853438F4823499F0833433
:1004D00098F48134A1F40CC0823661F0833618F4AC
:1004E000813669F405C0833639F0843641F406C09C
:1004F00089B3089586B3089583B3089580B30895AA
:10050000843409F1853438F48234A9F08334B8F4A2
:100510008134E1F40CC0823671F0833618F48136F0
:10052000A9F405C0833659F0843681F40CC08BB32E
:1005300080958BBB089588B3809588BB089585B35B
:10054000809585BB089582B3809582BB08958434DD
:1005500009F471C0853448F4823499F1833408F089
:100560004DC0813409F083C00FC0823651F183360B
:1005700020F4813609F07BC007C0833609F43EC001
:10058000843609F074C057C0413069F42BB381E060
:1005900090E0AC0102C0440F551F6A95E2F7BA0122
:1005A000622B6BBB08952BB381E090E0AC0102C0DD
:1005B000440F551F6A95E2F7BA01609562236BBB41
:1005C0000895413069F428B381E090E0AC0102C0A5
:1005D000440F551F6A95E2F7BA01622B68BB089574
:1005E00028B381E090E0AC0102C0440F551F6A952A
:1005F000E2F7BA016095622368BB0895413069F45F
:1006000025B381E090E0AC0102C0440F551F6A950C
:10061000E2F7BA01622B65BB089525B381E090E053
:10062000AC0102C0440F551F6A95E2F7BA0160950C
:10063000622365BB0895413069F422B381E090E004
:10064000AC0102C0440F551F6A95E2F7BA01622B54
:1006500062BB089522B381E090E0AC0102C0440F78
:10066000551F6A95E2F7BA016095622362BB08954F
:100670000F931F93CF93C82F062F462F417060E032
:100680000E94E10010E0A801427050705595479516
:100690008C2F61E00E94E100A801447050705595D4
:1006A0004795559547958C2F62E00E94E1000870B0
:1006B0001070A801559547955595479555954795BF
:1006C0008C2F63E00E94E100CF911F910F9108955C
:1006D0000F931F93CF93DF93C82FD62F062F10E0D1
:1006E000A80140715070559547955595479555957A
:1006F00047955595479564E00E94E100A801407236
:1007000050705595479555954795559547955595ED
:100710004795559547958C2F65E00E94E100007440
:100720001070A801042E452F000C441F550B000C1F
:10073000441F551F8C2F66E00E94E1004D2F441F7F
:100740004427441F8C2F67E00E94E100DF91CF9186
:100750001F910F9108958EBB9FBB6DBBE29AE19AEA
:10076000E199FECF08958EBB9FBBE19A8DB30895AA
:100770002CB39FBB8EBBE09A8DB30895DC018CB384
:100780004115510589F0E62FF72F20E030E0C9012F
:100790008A0F9B1F9FBB8EBBE09A8DB381932F5F07
:1007A0003F4F2417350799F708952CB39FBB8EBB95
:1007B000E09A8DB3861719F06DBBE29AE19A08951D
:1007C000DC0141155105B9F0E62FF72F20E030E0AC
:1007D0008CB3C9018A0F9B1F9FBB8EBBE09A9DB350
:1007E0008191981719F08DBBE29AE19A2F5F3F4FE4
:1007F0002417350769F70895CF93DF93CDB7DEB798
:100800002A970FB6F894DEBF0FBECDBF0E947106C7
:100810000E943A070F2EF0E6EF2EF0E0FF2EF02DAB
:100820000F2EF8E6CF2EF0E0DF2EF02D0F2EF7E79B
:10083000AF2EF0E0BF2EF02D0F2EF9E88F2EF0E056
:100840009F2EF02D0F2EF4E96F2EF0E07F2EF02D6D
:100850000F2EFEE94F2EF0E05F2EF02D0F2EF6EC5E
:100860002F2EF0E03F2EF02D8CE00E94280795E01F
:10087000FE013696DF01892F1D928A95E9F78FEFE9
:100880008E838F8388878987FE013196DF011D92D1
:100890009A95E9F789838A838B838C8381E065E06D
:1008A0000E94BD07C7010E94AE0782E062E00E947D
:1008B000BD07C6010E94AE078FEF96E1A1E181500E
:1008C0009040A040E1F700C000000E94A407C501CD
:1008D0000E94AE0782E063E00E94BD07C4010E944F
:1008E000AE078FEF99E6A8E181509040A040E1F774
:1008F00000C000000E94A407C3010E94AE0782E06E
:1009000066E00E94BD07C2010E94AE0782E066E079
:100910000E94BD0706E00E94AE06182F8F3FD9F354
:1009200082E0602F0E94BD07812F0E941C078FEF7D
:1009300092E5A7E081509040A040E1F700C00000A0
:10094000609109016A5F82E00E94BD070F5F0A3073
:1009500011F70E94A40780E091E0BE016A5F7F4F1B
:1009600045E050E00E94E00381E091E061E00E94F8
:10097000D50380E091E0BE016F5F7F4F45E050E01E
:100980000E94BE03CE010696BE016F5F7F4F45E019
:100990000E94DE078130E1F40E94A40781E062E05A
:1009A0000E94BD0783EA90E00E94AE0782E063E008
:1009B0000E94BD0782EB90E00E94AE078FEF93ECA0
:1009C000A9E081509040A040E1F700C0000011C0B4
:1009D0000E94A4078DEB90E00E94AE078FEF96E196
:1009E000A1E181509040A040E1F700C000000E94CA
:1009F000A4070E94A4078CE00E94280783E460E01B
:100A00000E944D0083E461E00E944D0083E462E0B7
:100A10000E944D0083E463E00E944D0083E464E0A3
:100A20000E944D0081E063E00E94BD07C1010E9469
:100A3000AE078FEF94E3ACE081509040A040E1F727
:100A400000C000000E94A40782ED90E00E94AE0763
:100A500081E063E00E94BD0780910901805D0E94F2
:100A60001C0781E06CE00E94BD0785ED90E00E94CC
:100A7000AE0781E06EE00E94BD0780910801805DB5
:100A80000E941C0782E061E00E94BD0789ED90E0B2
:100A90000E94AE0782E063E00E94BD0780910701DB
:100AA000805D0E941C0782E06CE00E94BD078DED16
:100AB00090E00E94AE0782E06EE00E94BD07809148
:100AC0000601805D0E941C0783E460E00E944D00E7
:100AD000813051F5809109018F5F8093090181E098
:100AE00063E00E94BD07809109018A3020F4805D97
:100AF0000E941C0710C01AE0612F0E94FA07805D57
:100B00000E941C0780910901612F0E94FA07892F1A
:100B1000805D0E941C0783E460E00E944D008130EC
:100B2000D1F30E94A407A0CE83E461E00E944D00AF
:100B3000813051F5809108018F5F8093080181E039
:100B40006EE00E94BD07809108018A3020F4805D2C
:100B50000E941C0710C01AE0612F0E94FA07805DF6
:100B60000E941C0780910801612F0E94FA07892FBB
:100B7000805D0E941C0783E461E00E944D0081308B
:100B8000D1F30E94A40770CE83E462E00E944D007E
:100B9000813051F5809107018F5F8093070182E0DA
:100BA00063E00E94BD07809107018A3020F4805DD8
:100BB0000E941C0710C01AE0612F0E94FA07805D96
:100BC0000E941C0780910701612F0E94FA07892F5C
:100BD000805D0E941C0783E462E00E944D0081302A
:100BE000D1F30E94A40740CE83E463E00E944D004D
:100BF000813099F58FE798E3A1E081509040A040C3
:100C0000E1F700C00000809106018F5F809306012C
:100C100082E06EE00E94BD07809106018A3020F4D8
:100C2000805D0E941C0710C01AE0612F0E94FA0725
:100C3000805D0E941C0780910601612F0E94FA07C7
:100C4000892F805D0E941C0783E463E00E944D00B1
:100C50008130D1F30E94A40707CE83E464E00E94B0
:100C60004D00813071F5109206011092070110922B
:100C700008011092090161E00E94BD0781EE90E039
:100C80000E94AE0781E06CE00E94BD0786EE90E016
:100C90000E94AE0782E061E00E94BD078BEE90E00B
:100CA0000E94AE0782E06CE00E94BD0780EF90E0FA
:100CB0000E94AE0781E061E00E94BD070E94A40788
:100CC000D3CD83E464E00E944D008130D1F38FEFF7
:100CD00091EEA4E081509040A040E1F700C00000F8
:100CE000F3CE84E460E041E00E94500084E461E0DF
:100CF00041E00E94500084E462E041E00E94500024
:100D000084E463E041E00E94500084E464E040E059
:100D10000E94500084E465E040E00E94500084E4BA
:100D200066E040E00E94500084E467E040E00E94FA
:100D3000500084E464E041E00E94A70284E465E09E
:100D400041E00E94A70284E466E041E00E94A7021D
:100D500084E467E041E00E94A70208950F931F9387
:100D6000CF93DF93CDB7DEB760970FB6F894DEBFB1
:100D70000FBECDBFDE011196E5EFF0E080E10190FE
:100D80000D928150E1F700E084E460E041E00E94D0
:100D9000E10084E461E041E00E94E10084E462E07B
:100DA00041E00E94E10084E463E041E00E94E10050
:100DB00084E4602F40E00E94E10010E0612F6C5F4E
:100DC00084E40E94BF01882361F4E02FF0E0EE0F7D
:100DD000FF1FEE0FFF1FE10FF11DEC0FFD1F8181C3
:100DE00004C01F5F143051F70BC060960FB6F89423
:100DF000DEBF0FBECDBFDF91CF911F910F91089540
:100E00000F5F043009F68FEFF0CF82E460E041E03D
:100E10000E94E1008FE99FE00197F1F700C0000018
:100E200082E460E040E00E94E1008FE99FE00197EA
:100E3000F1F700C000000895682F81E40E9442028B
:100E400082E462E041E00E94E1000E94050708950B
:100E5000682F81E40E94420282E462E040E00E9446
:100E6000E1000E9405078FEC97E00197F1F700C0C1
:100E7000000008958FEF91EEA4E081509040A040D3
:100E8000E1F700C0000081E460E041E00E94500012
:100E900081E461E041E00E94500081E462E041E0D1
:100EA0000E94500081E463E041E00E94500081E430
:100EB00064E041E00E94500081E465E041E00E946E
:100EC000500081E466E041E00E94500081E467E068
:100ED00041E00E94500082E460E041E00E94500046
:100EE00082E462E041E00E94500082E461E041E07F
:100EF0000E94500082E461E040E00E94E10088E34B
:100F00000E942807AFECB7E01197F1F700C000008E
:100F10008EE00E9428078FEC97E00197F1F700C060
:100F2000000081E00E942807AFECB7E01197F1F7CD
:100F300000C0000086E00E9428078FEC97E0019730
:100F4000F1F700C00000089581E00E9428078FE1BA
:100F50009EE40197F1F700C000000895CF93DF935E
:100F6000EC018881882331F021960E941C07899129
:100F70008823D9F7DF91CF910895282F215022306F
:100F800070F4613170F4662371F0813019F4962F9A
:100F900091580AC0823041F4962F915405C090E8D0
:100FA00003C090E801C090E8892F0E9428078FECC9
:100FB00097E00197F1F700C0000008954423A1F0E5
:100FC000FC013081FB012081321781F0DC01119698
:100FD000319680E004C02D919191291749F08F5FDF
:100FE0008417C9F781E0089581E0089580E00895AD
:100FF00080E00895991B79E004C0991F961708F0C6
:10100000961B881F7A95C9F780950895F894FFCFAD
:1010100077656C636F6D6500766F74696E67206DC0
:10102000616368696E65006C61737420666F7572C8
:101030002064696769747320006F662049442063E7
:1010400061726400456E7465722049443A005F5FC6
:101050005F5F007072657373206F6E6365206F6EE3
:101060002000616E7920627574746F6E0077726F04
:101070006E6720494400506C6561736520566F743B
:101080006500413D00423D3000433D3000443D306D
:1010900000413D302000423D302000433D302000E3
:1010A000443D3020003738392F3435362A31323339
:0610B0002D41303D2B0034
:00000001FF
